{
  "contractName": "Trade",
  "abi": [
    {
      "anonymous": false,
      "inputs": [
        {
          "indexed": true,
          "internalType": "uint256",
          "name": "_id",
          "type": "uint256"
        },
        {
          "indexed": true,
          "internalType": "address",
          "name": "_tokenA",
          "type": "address"
        },
        {
          "indexed": true,
          "internalType": "address",
          "name": "_tokenB",
          "type": "address"
        },
        {
          "indexed": false,
          "internalType": "uint256",
          "name": "_amountA",
          "type": "uint256"
        },
        {
          "indexed": false,
          "internalType": "uint256",
          "name": "_amountB",
          "type": "uint256"
        }
      ],
      "name": "Bid",
      "type": "event"
    },
    {
      "anonymous": false,
      "inputs": [
        {
          "indexed": true,
          "internalType": "uint256",
          "name": "_id",
          "type": "uint256"
        },
        {
          "indexed": true,
          "internalType": "address",
          "name": "_tokenA",
          "type": "address"
        },
        {
          "indexed": true,
          "internalType": "address",
          "name": "_tokenB",
          "type": "address"
        },
        {
          "indexed": false,
          "internalType": "uint256",
          "name": "_amountA",
          "type": "uint256"
        },
        {
          "indexed": false,
          "internalType": "uint256",
          "name": "_priceOfPair",
          "type": "uint256"
        }
      ],
      "name": "NewAsk",
      "type": "event"
    },
    {
      "inputs": [
        {
          "internalType": "uint256",
          "name": "",
          "type": "uint256"
        }
      ],
      "name": "askToOwner",
      "outputs": [
        {
          "internalType": "address",
          "name": "",
          "type": "address"
        }
      ],
      "stateMutability": "view",
      "type": "function",
      "constant": true
    },
    {
      "inputs": [
        {
          "internalType": "uint256",
          "name": "",
          "type": "uint256"
        }
      ],
      "name": "asks",
      "outputs": [
        {
          "internalType": "address",
          "name": "tokenA",
          "type": "address"
        },
        {
          "internalType": "address",
          "name": "tokenB",
          "type": "address"
        },
        {
          "internalType": "uint256",
          "name": "amountA",
          "type": "uint256"
        },
        {
          "internalType": "uint256",
          "name": "price",
          "type": "uint256"
        }
      ],
      "stateMutability": "view",
      "type": "function",
      "constant": true
    },
    {
      "inputs": [
        {
          "internalType": "address",
          "name": "",
          "type": "address"
        }
      ],
      "name": "ownerAskCount",
      "outputs": [
        {
          "internalType": "uint256",
          "name": "",
          "type": "uint256"
        }
      ],
      "stateMutability": "view",
      "type": "function",
      "constant": true
    },
    {
      "inputs": [
        {
          "internalType": "address",
          "name": "_tokenA",
          "type": "address"
        },
        {
          "internalType": "address",
          "name": "_tokenB",
          "type": "address"
        },
        {
          "internalType": "uint256",
          "name": "_amountA",
          "type": "uint256"
        },
        {
          "internalType": "uint256",
          "name": "_priceOfPair",
          "type": "uint256"
        }
      ],
      "name": "askToken20ToToken20",
      "outputs": [
        {
          "internalType": "uint256",
          "name": "",
          "type": "uint256"
        }
      ],
      "stateMutability": "nonpayable",
      "type": "function"
    },
    {
      "inputs": [
        {
          "internalType": "address",
          "name": "_tokenB",
          "type": "address"
        },
        {
          "internalType": "uint256",
          "name": "_priceOfPair",
          "type": "uint256"
        }
      ],
      "name": "askETHToToken20",
      "outputs": [
        {
          "internalType": "uint256",
          "name": "",
          "type": "uint256"
        }
      ],
      "stateMutability": "payable",
      "type": "function",
      "payable": true
    },
    {
      "inputs": [
        {
          "internalType": "address",
          "name": "_tokenA",
          "type": "address"
        },
        {
          "internalType": "uint256",
          "name": "_amountA",
          "type": "uint256"
        },
        {
          "internalType": "uint256",
          "name": "_priceOfPair",
          "type": "uint256"
        }
      ],
      "name": "askToken20ToETH",
      "outputs": [
        {
          "internalType": "uint256",
          "name": "",
          "type": "uint256"
        }
      ],
      "stateMutability": "nonpayable",
      "type": "function"
    },
    {
      "inputs": [
        {
          "internalType": "address",
          "name": "_tokenA",
          "type": "address"
        },
        {
          "internalType": "address",
          "name": "_tokenB",
          "type": "address"
        }
      ],
      "name": "getBestPrice",
      "outputs": [
        {
          "internalType": "uint256",
          "name": "",
          "type": "uint256"
        }
      ],
      "stateMutability": "view",
      "type": "function",
      "constant": true
    },
    {
      "inputs": [
        {
          "internalType": "uint256",
          "name": "_askId",
          "type": "uint256"
        },
        {
          "internalType": "uint256",
          "name": "_amountDesired",
          "type": "uint256"
        }
      ],
      "name": "bidToken20ToToken20",
      "outputs": [
        {
          "internalType": "bool",
          "name": "",
          "type": "bool"
        }
      ],
      "stateMutability": "nonpayable",
      "type": "function"
    },
    {
      "inputs": [
        {
          "internalType": "uint256",
          "name": "_askId",
          "type": "uint256"
        },
        {
          "internalType": "uint256",
          "name": "_amountDesired",
          "type": "uint256"
        }
      ],
      "name": "bidETHToToken20",
      "outputs": [
        {
          "internalType": "bool",
          "name": "",
          "type": "bool"
        }
      ],
      "stateMutability": "nonpayable",
      "type": "function"
    },
    {
      "inputs": [
        {
          "internalType": "uint256",
          "name": "_askId",
          "type": "uint256"
        }
      ],
      "name": "bidToken20ToETH",
      "outputs": [
        {
          "internalType": "bool",
          "name": "",
          "type": "bool"
        }
      ],
      "stateMutability": "payable",
      "type": "function",
      "payable": true
    }
  ],
  "bytecode": "0x608060405234801561001057600080fd5b50611ec3806100206000396000f3fe6080604052600436106100915760003560e01c8063664f4bb711610059578063664f4bb71461032d5780637ab89eb2146103c6578063827a3b4c1461040c578063aa53e56714610471578063f8ee333d146104ce57610091565b80630b0c1493146100965780631c5d1237146101525780634beaa70c146101cd57806352a8ffad1461025257806365e00767146102cb575b600080fd5b3480156100a257600080fd5b506100cf600480360360208110156100b957600080fd5b810190808035906020019092919050505061052b565b604051808573ffffffffffffffffffffffffffffffffffffffff1673ffffffffffffffffffffffffffffffffffffffff1681526020018473ffffffffffffffffffffffffffffffffffffffff1673ffffffffffffffffffffffffffffffffffffffff16815260200183815260200182815260200194505050505060405180910390f35b34801561015e57600080fd5b5061018b6004803603602081101561017557600080fd5b81019080803590602001909291905050506105a8565b604051808273ffffffffffffffffffffffffffffffffffffffff1673ffffffffffffffffffffffffffffffffffffffff16815260200191505060405180910390f35b3480156101d957600080fd5b5061023c600480360360408110156101f057600080fd5b81019080803573ffffffffffffffffffffffffffffffffffffffff169060200190929190803573ffffffffffffffffffffffffffffffffffffffff1690602001909291905050506105db565b6040518082815260200191505060405180910390f35b34801561025e57600080fd5b506102b56004803603606081101561027557600080fd5b81019080803573ffffffffffffffffffffffffffffffffffffffff1690602001909291908035906020019092919080359060200190929190505050610742565b6040518082815260200191505060405180910390f35b610317600480360360408110156102e157600080fd5b81019080803573ffffffffffffffffffffffffffffffffffffffff16906020019092919080359060200190929190505050610bc3565b6040518082815260200191505060405180910390f35b34801561033957600080fd5b506103b06004803603608081101561035057600080fd5b81019080803573ffffffffffffffffffffffffffffffffffffffff169060200190929190803573ffffffffffffffffffffffffffffffffffffffff1690602001909291908035906020019092919080359060200190929190505050610e15565b6040518082815260200191505060405180910390f35b6103f2600480360360208110156103dc57600080fd5b8101908080359060200190929190505050611295565b604051808215151515815260200191505060405180910390f35b34801561041857600080fd5b5061045b6004803603602081101561042f57600080fd5b81019080803573ffffffffffffffffffffffffffffffffffffffff169060200190929190505050611539565b6040518082815260200191505060405180910390f35b34801561047d57600080fd5b506104b46004803603604081101561049457600080fd5b810190808035906020019092919080359060200190929190505050611551565b604051808215151515815260200191505060405180910390f35b3480156104da57600080fd5b50610511600480360360408110156104f157600080fd5b81019080803590602001909291908035906020019092919050505061198c565b604051808215151515815260200191505060405180910390f35b6000818154811061053857fe5b90600052602060002090600402016000915090508060000160009054906101000a900473ffffffffffffffffffffffffffffffffffffffff16908060010160009054906101000a900473ffffffffffffffffffffffffffffffffffffffff16908060020154908060030154905084565b60016020528060005260406000206000915054906101000a900473ffffffffffffffffffffffffffffffffffffffff1681565b6000806000905060008080549050905060008090505b81811015610736578573ffffffffffffffffffffffffffffffffffffffff166000828154811061061d57fe5b906000526020600020906004020160000160009054906101000a900473ffffffffffffffffffffffffffffffffffffffff1673ffffffffffffffffffffffffffffffffffffffff161480156106db57508473ffffffffffffffffffffffffffffffffffffffff166000828154811061069157fe5b906000526020600020906004020160010160009054906101000a900473ffffffffffffffffffffffffffffffffffffffff1673ffffffffffffffffffffffffffffffffffffffff16145b156107295782600082815481106106ee57fe5b9060005260206000209060040201600301541115610728576000818154811061071357fe5b90600052602060002090600402016003015492505b5b80806001019150506105f1565b50819250505092915050565b60008060405180608001604052808673ffffffffffffffffffffffffffffffffffffffff168152602001600073ffffffffffffffffffffffffffffffffffffffff16815260200185815260200184815250908060018154018082558091505060019003906000526020600020906004020160009091909190915060008201518160000160006101000a81548173ffffffffffffffffffffffffffffffffffffffff021916908373ffffffffffffffffffffffffffffffffffffffff16021790555060208201518160010160006101000a81548173ffffffffffffffffffffffffffffffffffffffff021916908373ffffffffffffffffffffffffffffffffffffffff1602179055506040820151816002015560608201518160030155505060006001600080549050039050838573ffffffffffffffffffffffffffffffffffffffff1663dd62ed3e33306040518363ffffffff1660e01b8152600401808373ffffffffffffffffffffffffffffffffffffffff1673ffffffffffffffffffffffffffffffffffffffff1681526020018273ffffffffffffffffffffffffffffffffffffffff1673ffffffffffffffffffffffffffffffffffffffff1681526020019250505060206040518083038186803b15801561091f57600080fd5b505afa158015610933573d6000803e3d6000fd5b505050506040513d602081101561094957600080fd5b810190808051906020019092919050505010156109b1576040517f08c379a000000000000000000000000000000000000000000000000000000000815260040180806020018281038252602c815260200180611e62602c913960400191505060405180910390fd5b8473ffffffffffffffffffffffffffffffffffffffff166323b872dd3330876040518463ffffffff1660e01b8152600401808473ffffffffffffffffffffffffffffffffffffffff1673ffffffffffffffffffffffffffffffffffffffff1681526020018373ffffffffffffffffffffffffffffffffffffffff1673ffffffffffffffffffffffffffffffffffffffff1681526020018281526020019350505050602060405180830381600087803b158015610a6c57600080fd5b505af1158015610a80573d6000803e3d6000fd5b505050506040513d6020811015610a9657600080fd5b810190808051906020019092919050505050336001600083815260200190815260200160002060006101000a81548173ffffffffffffffffffffffffffffffffffffffff021916908373ffffffffffffffffffffffffffffffffffffffff160217905550600260003373ffffffffffffffffffffffffffffffffffffffff1673ffffffffffffffffffffffffffffffffffffffff16815260200190815260200160002060008154809291906001019190505550600073ffffffffffffffffffffffffffffffffffffffff168573ffffffffffffffffffffffffffffffffffffffff16827ff7fc980545ea37d0ec3c492e27ef74a2c3db4cd046f70f668d7f1a45f5eb16f28787604051808381526020018281526020019250505060405180910390a4809150509392505050565b6000803411610bd157600080fd5b60006040518060800160405280600073ffffffffffffffffffffffffffffffffffffffff1681526020018573ffffffffffffffffffffffffffffffffffffffff16815260200134815260200184815250908060018154018082558091505060019003906000526020600020906004020160009091909190915060008201518160000160006101000a81548173ffffffffffffffffffffffffffffffffffffffff021916908373ffffffffffffffffffffffffffffffffffffffff16021790555060208201518160010160006101000a81548173ffffffffffffffffffffffffffffffffffffffff021916908373ffffffffffffffffffffffffffffffffffffffff1602179055506040820151816002015560608201518160030155505060006001600080549050039050336001600083815260200190815260200160002060006101000a81548173ffffffffffffffffffffffffffffffffffffffff021916908373ffffffffffffffffffffffffffffffffffffffff160217905550600260003373ffffffffffffffffffffffffffffffffffffffff1673ffffffffffffffffffffffffffffffffffffffff168152602001908152602001600020600081548092919060010191905055508373ffffffffffffffffffffffffffffffffffffffff16600073ffffffffffffffffffffffffffffffffffffffff16827ff7fc980545ea37d0ec3c492e27ef74a2c3db4cd046f70f668d7f1a45f5eb16f23487604051808381526020018281526020019250505060405180910390a48091505092915050565b60008060405180608001604052808773ffffffffffffffffffffffffffffffffffffffff1681526020018673ffffffffffffffffffffffffffffffffffffffff16815260200185815260200184815250908060018154018082558091505060019003906000526020600020906004020160009091909190915060008201518160000160006101000a81548173ffffffffffffffffffffffffffffffffffffffff021916908373ffffffffffffffffffffffffffffffffffffffff16021790555060208201518160010160006101000a81548173ffffffffffffffffffffffffffffffffffffffff021916908373ffffffffffffffffffffffffffffffffffffffff1602179055506040820151816002015560608201518160030155505060006001600080549050039050838673ffffffffffffffffffffffffffffffffffffffff1663dd62ed3e33306040518363ffffffff1660e01b8152600401808373ffffffffffffffffffffffffffffffffffffffff1673ffffffffffffffffffffffffffffffffffffffff1681526020018273ffffffffffffffffffffffffffffffffffffffff1673ffffffffffffffffffffffffffffffffffffffff1681526020019250505060206040518083038186803b158015610ff157600080fd5b505afa158015611005573d6000803e3d6000fd5b505050506040513d602081101561101b57600080fd5b81019080805190602001909291905050501015611083576040517f08c379a000000000000000000000000000000000000000000000000000000000815260040180806020018281038252602c815260200180611e62602c913960400191505060405180910390fd5b8573ffffffffffffffffffffffffffffffffffffffff166323b872dd3330876040518463ffffffff1660e01b8152600401808473ffffffffffffffffffffffffffffffffffffffff1673ffffffffffffffffffffffffffffffffffffffff1681526020018373ffffffffffffffffffffffffffffffffffffffff1673ffffffffffffffffffffffffffffffffffffffff1681526020018281526020019350505050602060405180830381600087803b15801561113e57600080fd5b505af1158015611152573d6000803e3d6000fd5b505050506040513d602081101561116857600080fd5b810190808051906020019092919050505050336001600083815260200190815260200160002060006101000a81548173ffffffffffffffffffffffffffffffffffffffff021916908373ffffffffffffffffffffffffffffffffffffffff160217905550600260003373ffffffffffffffffffffffffffffffffffffffff1673ffffffffffffffffffffffffffffffffffffffff168152602001908152602001600020600081548092919060010191905055508473ffffffffffffffffffffffffffffffffffffffff168673ffffffffffffffffffffffffffffffffffffffff16827ff7fc980545ea37d0ec3c492e27ef74a2c3db4cd046f70f668d7f1a45f5eb16f28787604051808381526020018281526020019250505060405180910390a480915050949350505050565b60008034116112a357600080fd5b60008083815481106112b157fe5b906000526020600020906004020190506000816002015414156112d357600080fd5b6000816003015482600201540290506000826003015434816112f157fe5b0490503482101561130157600080fd5b60006001600087815260200190815260200160002060009054906101000a900473ffffffffffffffffffffffffffffffffffffffff1690508073ffffffffffffffffffffffffffffffffffffffff166108fc349081150290604051600060405180830381858888f1935050505015801561137f573d6000803e3d6000fd5b508360000160009054906101000a900473ffffffffffffffffffffffffffffffffffffffff1673ffffffffffffffffffffffffffffffffffffffff1663a9059cbb33846040518363ffffffff1660e01b8152600401808373ffffffffffffffffffffffffffffffffffffffff1673ffffffffffffffffffffffffffffffffffffffff16815260200182815260200192505050602060405180830381600087803b15801561142b57600080fd5b505af115801561143f573d6000803e3d6000fd5b505050506040513d602081101561145557600080fd5b8101908080519060200190929190505050508184600201540384600201819055508360010160009054906101000a900473ffffffffffffffffffffffffffffffffffffffff1673ffffffffffffffffffffffffffffffffffffffff168460000160009054906101000a900473ffffffffffffffffffffffffffffffffffffffff1673ffffffffffffffffffffffffffffffffffffffff16877fb250059d7fe2fecf786e63757950d6c8821ffef13a84f4116f06fb048716f4618534604051808381526020018281526020019250505060405180910390a46001945050505050919050565b60026020528060005260406000206000915090505481565b6000806000848154811061156157fe5b9060005260206000209060040201905060008160020154141561158357600080fd5b6000816003015482600201540290506000826003015485816115a157fe5b049050848210156115b157600080fd5b60006001600088815260200190815260200160002060009054906101000a900473ffffffffffffffffffffffffffffffffffffffff169050858460010160009054906101000a900473ffffffffffffffffffffffffffffffffffffffff1673ffffffffffffffffffffffffffffffffffffffff1663dd62ed3e33306040518363ffffffff1660e01b8152600401808373ffffffffffffffffffffffffffffffffffffffff1673ffffffffffffffffffffffffffffffffffffffff1681526020018273ffffffffffffffffffffffffffffffffffffffff1673ffffffffffffffffffffffffffffffffffffffff1681526020019250505060206040518083038186803b1580156116bf57600080fd5b505afa1580156116d3573d6000803e3d6000fd5b505050506040513d60208110156116e957600080fd5b81019080805190602001909291905050501015611751576040517f08c379a000000000000000000000000000000000000000000000000000000000815260040180806020018281038252602c815260200180611e62602c913960400191505060405180910390fd5b8360010160009054906101000a900473ffffffffffffffffffffffffffffffffffffffff1673ffffffffffffffffffffffffffffffffffffffff166323b872dd3383896040518463ffffffff1660e01b8152600401808473ffffffffffffffffffffffffffffffffffffffff1673ffffffffffffffffffffffffffffffffffffffff1681526020018373ffffffffffffffffffffffffffffffffffffffff1673ffffffffffffffffffffffffffffffffffffffff1681526020018281526020019350505050602060405180830381600087803b15801561183057600080fd5b505af1158015611844573d6000803e3d6000fd5b505050506040513d602081101561185a57600080fd5b81019080805190602001909291905050505060003390508073ffffffffffffffffffffffffffffffffffffffff166108fc849081150290604051600060405180830381858888f193505050501580156118b7573d6000803e3d6000fd5b508285600201540385600201819055508460010160009054906101000a900473ffffffffffffffffffffffffffffffffffffffff1673ffffffffffffffffffffffffffffffffffffffff168560000160009054906101000a900473ffffffffffffffffffffffffffffffffffffffff1673ffffffffffffffffffffffffffffffffffffffff16897fb250059d7fe2fecf786e63757950d6c8821ffef13a84f4116f06fb048716f461868b604051808381526020018281526020019250505060405180910390a460019550505050505092915050565b6000806000848154811061199c57fe5b906000526020600020906004020190506000816002015414156119be57600080fd5b6000816003015482600201540290506000826003015485816119dc57fe5b049050848210156119ec57600080fd5b60006001600088815260200190815260200160002060009054906101000a900473ffffffffffffffffffffffffffffffffffffffff169050858460010160009054906101000a900473ffffffffffffffffffffffffffffffffffffffff1673ffffffffffffffffffffffffffffffffffffffff1663dd62ed3e33306040518363ffffffff1660e01b8152600401808373ffffffffffffffffffffffffffffffffffffffff1673ffffffffffffffffffffffffffffffffffffffff1681526020018273ffffffffffffffffffffffffffffffffffffffff1673ffffffffffffffffffffffffffffffffffffffff1681526020019250505060206040518083038186803b158015611afa57600080fd5b505afa158015611b0e573d6000803e3d6000fd5b505050506040513d6020811015611b2457600080fd5b81019080805190602001909291905050501015611b8c576040517f08c379a000000000000000000000000000000000000000000000000000000000815260040180806020018281038252602c815260200180611e62602c913960400191505060405180910390fd5b8360010160009054906101000a900473ffffffffffffffffffffffffffffffffffffffff1673ffffffffffffffffffffffffffffffffffffffff166323b872dd3383896040518463ffffffff1660e01b8152600401808473ffffffffffffffffffffffffffffffffffffffff1673ffffffffffffffffffffffffffffffffffffffff1681526020018373ffffffffffffffffffffffffffffffffffffffff1673ffffffffffffffffffffffffffffffffffffffff1681526020018281526020019350505050602060405180830381600087803b158015611c6b57600080fd5b505af1158015611c7f573d6000803e3d6000fd5b505050506040513d6020811015611c9557600080fd5b8101908080519060200190929190505050508360000160009054906101000a900473ffffffffffffffffffffffffffffffffffffffff1673ffffffffffffffffffffffffffffffffffffffff1663a9059cbb33846040518363ffffffff1660e01b8152600401808373ffffffffffffffffffffffffffffffffffffffff1673ffffffffffffffffffffffffffffffffffffffff16815260200182815260200192505050602060405180830381600087803b158015611d5257600080fd5b505af1158015611d66573d6000803e3d6000fd5b505050506040513d6020811015611d7c57600080fd5b8101908080519060200190929190505050508184600201540384600201819055508360010160009054906101000a900473ffffffffffffffffffffffffffffffffffffffff1673ffffffffffffffffffffffffffffffffffffffff168460000160009054906101000a900473ffffffffffffffffffffffffffffffffffffffff1673ffffffffffffffffffffffffffffffffffffffff16887fb250059d7fe2fecf786e63757950d6c8821ffef13a84f4116f06fb048716f461858a604051808381526020018281526020019250505060405180910390a460019450505050509291505056fe6572726f723a207468697320636f6e747261637420636875612064756f6320617070726f766520746f6b656ea264697066735822122039bb58e13b2b60939cdcddbdd33e5a53ada58884f21c004b4c1d4ef59602469964736f6c63430006060033",
  "immutableReferences": {},
  "source": "// SPDX-License-Identifier: MIT\r\npragma solidity >=0.5.1;\r\n\r\nabstract contract IERC20 {\r\n    function approve(address spender, uint256 value)\r\n        external\r\n        virtual\r\n        returns (bool);\r\n\r\n    function transfer(address to, uint256 value)\r\n        external\r\n        virtual\r\n        returns (bool);\r\n\r\n    function transferFrom(\r\n        address from,\r\n        address to,\r\n        uint256 value\r\n    ) external virtual returns (bool);\r\n\r\n    function allowance(address owner, address spender)\r\n        public\r\n        view\r\n        virtual\r\n        returns (uint256);\r\n}\r\n\r\ncontract Trade {\r\n    struct Ask {\r\n        address tokenA;\r\n        address tokenB;\r\n        uint256 amountA;\r\n        uint256 price;\r\n    }\r\n\r\n    Ask[] public asks;\r\n\r\n    mapping(uint256 => address) public askToOwner;\r\n    mapping(address => uint256) public ownerAskCount;\r\n    // mapping(address => mapping(address => uint256[])) public bestPrice;\r\n\r\n    event NewAsk(\r\n        uint256 indexed _id,\r\n        address indexed _tokenA,\r\n        address indexed _tokenB,\r\n        uint256 _amountA,\r\n        uint256 _priceOfPair\r\n    );\r\n    event Bid(\r\n        uint256 indexed _id,\r\n        address indexed _tokenA,\r\n        address indexed _tokenB,\r\n        uint256 _amountA,\r\n        uint256 _amountB\r\n    );\r\n\r\n    // Ask:  A user (asker) create a request to trade one asset to another,\r\n    // sending the amount of asset they one to trade into the contract.\r\n    // Input: types of asset one to trade, amount of the asset one to trade, price of the asset pair tokenA = x tokenB\r\n    function askToken20ToToken20(\r\n        address _tokenA,\r\n        address _tokenB,\r\n        uint256 _amountA,\r\n        uint256 _priceOfPair\r\n    ) external returns (uint256) {\r\n        asks.push(Ask(_tokenA, _tokenB, _amountA, _priceOfPair));\r\n        uint256 id = asks.length - 1;\r\n        require(\r\n            IERC20(_tokenA).allowance(msg.sender, address(this)) >= _amountA,\r\n            \"error: this contract chua duoc approve token\"\r\n        );\r\n        IERC20(_tokenA).transferFrom(msg.sender, address(this), _amountA);\r\n        askToOwner[id] = msg.sender;\r\n        ownerAskCount[msg.sender]++;\r\n\r\n        emit NewAsk(id, _tokenA, _tokenB, _amountA, _priceOfPair);\r\n        return id;\r\n    }\r\n\r\n    function askETHToToken20(address _tokenB, uint256 _priceOfPair)\r\n        external\r\n        payable\r\n        returns (uint256)\r\n    {\r\n        require(msg.value > 0);\r\n        asks.push(Ask(address(0), _tokenB, msg.value, _priceOfPair));\r\n        uint256 id = asks.length - 1;\r\n\r\n        askToOwner[id] = msg.sender;\r\n        ownerAskCount[msg.sender]++;\r\n\r\n        emit NewAsk(id, address(0), _tokenB, msg.value, _priceOfPair);\r\n        return id;\r\n    }\r\n\r\n    function askToken20ToETH(\r\n        address _tokenA,\r\n        uint256 _amountA,\r\n        uint256 _priceOfPair\r\n    ) external returns (uint256) {\r\n        asks.push(Ask(_tokenA, address(0), _amountA, _priceOfPair));\r\n        uint256 id = asks.length - 1;\r\n        require(\r\n            IERC20(_tokenA).allowance(msg.sender, address(this)) >= _amountA,\r\n            \"error: this contract chua duoc approve token\"\r\n        );\r\n        IERC20(_tokenA).transferFrom(msg.sender, address(this), _amountA);\r\n        askToOwner[id] = msg.sender;\r\n        ownerAskCount[msg.sender]++;\r\n\r\n        emit NewAsk(id, _tokenA, address(0), _amountA, _priceOfPair);\r\n        return id;\r\n    }\r\n\r\n    // BestPrice: Get the best price of an asset pair\r\n    function getBestPrice(address _tokenA, address _tokenB)\r\n        public\r\n        view\r\n        returns (uint256)\r\n    {\r\n        uint256 max = 0;\r\n        uint256 length = asks.length;\r\n        for (uint256 i = 0; i < length; i++) {\r\n            if (asks[i].tokenA == _tokenA && asks[i].tokenB == _tokenB) {\r\n                if (asks[i].price > max) max = asks[i].price;\r\n            }\r\n        }\r\n        return max;\r\n    }\r\n\r\n    // Bid: A user (bidder) create a request\r\n    // to accept the ask request of other user and execute the trade.\r\n    // Input: Ask request id, amount of asset the bidder want to trade.\r\n    function bidToken20ToToken20(uint256 _askId, uint256 _amountDesired)\r\n        external\r\n        returns (bool)\r\n    {\r\n        Ask storage askRequest = asks[_askId];\r\n        require(askRequest.amountA != 0);\r\n        uint256 amountBToTrade = askRequest.amountA * askRequest.price;\r\n        uint256 amountAToTrade = _amountDesired / askRequest.price;\r\n        require(amountBToTrade >= _amountDesired);\r\n\r\n        address recipient = askToOwner[_askId];\r\n        require(\r\n            IERC20(askRequest.tokenB).allowance(msg.sender, address(this)) >=\r\n                _amountDesired,\r\n            \"error: this contract chua duoc approve token\"\r\n        );\r\n        IERC20(askRequest.tokenB).transferFrom(\r\n            msg.sender,\r\n            recipient,\r\n            _amountDesired\r\n        );\r\n        IERC20(askRequest.tokenA).transfer(msg.sender, amountAToTrade);\r\n\r\n        askRequest.amountA = askRequest.amountA - amountAToTrade;\r\n\r\n        emit Bid(\r\n            _askId,\r\n            askRequest.tokenA,\r\n            askRequest.tokenB,\r\n            amountAToTrade,\r\n            _amountDesired\r\n        );\r\n        return true;\r\n    }\r\n\r\n    function bidETHToToken20(uint256 _askId, uint256 _amountDesired)\r\n        external\r\n        returns (bool)\r\n    {\r\n        Ask storage askRequest = asks[_askId];\r\n        require(askRequest.amountA != 0);\r\n        uint256 amountBToTrade = askRequest.amountA * askRequest.price;\r\n        uint256 amountAToTrade = _amountDesired / askRequest.price;\r\n        require(amountBToTrade >= _amountDesired);\r\n        address recipient = askToOwner[_askId];\r\n        require(\r\n            IERC20(askRequest.tokenB).allowance(msg.sender, address(this)) >=\r\n                _amountDesired,\r\n            \"error: this contract chua duoc approve token\"\r\n        );\r\n        IERC20(askRequest.tokenB).transferFrom(\r\n            msg.sender,\r\n            recipient,\r\n            _amountDesired\r\n        );\r\n        address payable bidder = payable(msg.sender);\r\n        bidder.transfer(amountAToTrade);\r\n\r\n        askRequest.amountA = askRequest.amountA - amountAToTrade;\r\n\r\n        emit Bid(\r\n            _askId,\r\n            askRequest.tokenA,\r\n            askRequest.tokenB,\r\n            amountAToTrade,\r\n            _amountDesired\r\n        );\r\n        return true;\r\n    }\r\n\r\n    function bidToken20ToETH(uint256 _askId) external payable returns (bool) {\r\n        require(msg.value > 0);\r\n        Ask storage askRequest = asks[_askId];\r\n        require(askRequest.amountA != 0);\r\n        uint256 amountBToTrade = askRequest.amountA * askRequest.price;\r\n        uint256 amountAToTrade = msg.value / askRequest.price;\r\n        require(amountBToTrade >= msg.value);\r\n        address payable recipient = payable(askToOwner[_askId]);\r\n\r\n        recipient.transfer(msg.value);\r\n        IERC20(askRequest.tokenA).transfer(msg.sender, amountAToTrade);\r\n\r\n        askRequest.amountA = askRequest.amountA - amountAToTrade;\r\n\r\n        emit Bid(\r\n            _askId,\r\n            askRequest.tokenA,\r\n            askRequest.tokenB,\r\n            amountAToTrade,\r\n            msg.value\r\n        );\r\n        return true;\r\n    }\r\n}\r\n",
  "sourcePath": "E:\\Intern\\Excercise\\myEx\\contracts\\Trade.sol",
  "compiler": {
    "name": "solc",
    "version": "0.6.6+commit.6c089d02.Emscripten.clang"
  },
  "schemaVersion": "3.4.3",
  "updatedAt": "2021-09-13T12:00:29.724Z",
  "networkType": "ethereum",
  "devdoc": {
    "methods": {}
  },
  "userdoc": {
    "methods": {}
  }
}